:100000000C9446000C9465000C9465000C946500FB
:100010000C9465000C9465000C9465000C946500CC
:100020000C9465000C9465000C9465000C946500BC
:100030000C9465000C94DE000C9465000C94650033
:100040000C9465000C9465000C9465000C9465009C
:100050000C9465000C9465000C9465000C9465008C
:100060000C9465000C9465000C9465000C9465007C
:100070000C9465000C9465000C9465000C9465006C
:100080000C9465000C9465000C94650011241FBE4F
:10009000CFEFD0E4DEBFCDBF11E0A0E0B1E0EEE0F5
:1000A000F5E000E00BBF02C007900D92A231B1074E
:1000B000D9F721E0A2E1B1E001C01D92AA31B20757
:1000C000E1F70E9459020C9485020C940000CF9332
:1000D000DF9300D01F92CDB7DEB789837B836A831D
:1000E00089818A3031F48A819B81BC018DE00E9434
:1000F000670080EC90E0FC018081882F90E08072A6
:100100009927892BB1F386EC90E02981FC012083AB
:1001100080E090E00F900F900F90DF91CF910895C5
:10012000CF93DF93CDB7DEB781E890E02BE0FC0101
:10013000208388E890E02DE730E0FC0131832083C4
:100140008FE690E022E0FC01208384E890E0FC014F
:100150001182108280910E0190910F01A0911001E7
:10016000B09111018093130190931401A093150194
:10017000B09316018FE590E02FE530E0F901208182
:100180002068FC0120830000DF91CF910895CF9378
:10019000DF93CDB7DEB781E890E0FC01108200006C
:1001A000DF91CF910895CF93DF93CDB7DEB781E094
:1001B000809312010000DF91CF9108951F920F925A
:1001C00000905F000F92112400905B000F922F931C
:1001D0003F934F935F936F937F938F939F93AF93CF
:1001E000BF93EF93FF93CF93DF93CDB7DEB78091AB
:1001F000130190911401A0911501B091160101977E
:10020000A109B1098093130190931401A0931501E2
:10021000B09316018091130190911401A0911501E2
:10022000B0911601892B8A2B8B2B91F40E94D3005D
:1002300080910E0190910F01A0911001B0911101D8
:100240008093130190931401A0931501B0931601AC
:100250000000DF91CF91FF91EF91BF91AF919F91FE
:100260008F917F916F915F914F913F912F910F905F
:1002700000925B000F9000925F000F901F90189506
:10028000CF93DF9300D000D0CDB7DEB769837A83F8
:100290008B839C8389819A81AB81BC8180930E0181
:1002A00090930F01A0931001B093110180910E0162
:1002B00090910F01A0911001B09111018093130151
:1002C00090931401A0931501B093160100000F90B4
:1002D0000F900F900F90DF91CF910895CF93DF9300
:1002E0001F92CDB7DEB780E290E0FC01808180955F
:1002F0008370898380911801909119018230910552
:1003000009F478C08330910528F4009751F00197E3
:1003100091F095C08330910509F447C0049751F1DD
:100320008EC081E090E0909319018093180187E0DE
:10033000809317018CC08981833039F484E090E088
:10034000909319018093180181C08981823039F41A
:1003500082E090E0909319018093180177C0898121
:10036000813009F073C083E090E09093190180938D
:1003700018016CC08981823039F482E090E090935A
:1003800019018093180163C08981813039F483E0B9
:1003900090E0909319018093180159C084E090E097
:1003A000909319018093180152C08981882339F4F0
:1003B00081E090E0909319018093180148C08981F1
:1003C000833039F484E090E0909319018093180110
:1003D0003EC08981823039F482E090E09093190127
:1003E0008093180134C083E090E0909319018093CA
:1003F00018012DC08981882339F481E090E0909321
:1004000019018093180123C08981833039F484E075
:1004100090E0909319018093180119C0898181306F
:1004200039F483E090E090931901809318010FC094
:1004300082E090E0909319018093180108C081E058
:1004400090E0909319018093180101C00000809101
:100450001801909119018330910581F08430910544
:10046000B9F0029709F01AC080911701882399F01A
:10047000809117018150809317010DC08091170161
:10048000893058F4809117018F5F8093170105C060
:100490001092170103C0000001C0000085E290E047
:1004A00020911701FC01208300000F90DF91CF9174
:1004B0000895CF93DF93CDB7DEB781E290E0FC01E2
:1004C000108282E290E02FEFFC01208384E290E032
:1004D0002FEFFC01208385E290E0FC01108264E6AE
:1004E00070E080E090E00E9440010E949000109235
:1004F0001901109218010E946E01000080911201F2
:0E0500008823E1F310921201F6CFF894FFCF9A
:10050E000000000200000000670000000000010073
:02051E000000DB
:00000001FF
