:100000000C9446000C9465000C9465000C946500FB
:100010000C9465000C9465000C9465000C946500CC
:100020000C9465000C9465000C9465000C946500BC
:100030000C9465000C94DE000C9465000C94650033
:100040000C9465000C9465000C9465000C9465009C
:100050000C9465000C9465000C9465000C9465008C
:100060000C9465000C9465000C9465000C9465007C
:100070000C9465000C9465000C9465000C9465006C
:100080000C9465000C9465000C94650011241FBE4F
:10009000CFEFD0E4DEBFCDBF11E0A0E0B1E0E4E3FC
:1000A000F5E000E00BBF02C007900D92A231B1074E
:1000B000D9F721E0A2E1B1E001C01D92AD31B20754
:1000C000E1F70E9466020C9498020C940000CF9312
:1000D000DF9300D01F92CDB7DEB789837B836A831D
:1000E00089818A3031F48A819B81BC018DE00E9434
:1000F000670080EC90E0FC018081882F90E08072A6
:100100009927892BB1F386EC90E02981FC012083AB
:1001100080E090E00F900F900F90DF91CF910895C5
:10012000CF93DF93CDB7DEB781E890E02BE0FC0101
:10013000208388E890E02DE730E0FC0131832083C4
:100140008FE690E022E0FC01208384E890E0FC014F
:100150001182108280910E0190910F01A0911001E7
:10016000B09111018093130190931401A093150194
:10017000B09316018FE590E02FE530E0F901208182
:100180002068FC0120830000DF91CF910895CF9378
:10019000DF93CDB7DEB781E890E0FC01108200006C
:1001A000DF91CF910895CF93DF93CDB7DEB781E094
:1001B000809312010000DF91CF9108951F920F925A
:1001C00000905F000F92112400905B000F922F931C
:1001D0003F934F935F936F937F938F939F93AF93CF
:1001E000BF93EF93FF93CF93DF93CDB7DEB78091AB
:1001F000130190911401A0911501B091160101977E
:10020000A109B1098093130190931401A0931501E2
:10021000B09316018091130190911401A0911501E2
:10022000B0911601892B8A2B8B2B91F40E94D3005D
:1002300080910E0190910F01A0911001B0911101D8
:100240008093130190931401A0931501B0931601AC
:100250000000DF91CF91FF91EF91BF91AF919F91FE
:100260008F917F916F915F914F913F912F910F905F
:1002700000925B000F9000925F000F901F90189506
:10028000CF93DF9300D000D0CDB7DEB769837A83F8
:100290008B839C8389819A81AB81BC8180930E0181
:1002A00090930F01A0931001B093110180910E0162
:1002B00090910F01A0911001B09111018093130151
:1002C00090931401A0931501B093160100000F90B4
:1002D0000F900F900F90DF91CF910895CF93DF9300
:1002E000CDB7DEB780911B0190911C018130910543
:1002F00029F18130910518F0029741F035C082E074
:1003000090E090931C0180931B0133C080E290E049
:10031000FC018081882F90E081709927892B39F426
:1003200081E090E090931C0180931B0122C082E049
:1003300090E090931C0180931B011BC080E290E031
:10034000FC018081882F90E0019639F082E090E0F6
:1003500090931C0180931B010CC081E090E090936E
:100360001C0180931B0105C010921C0110921B01FF
:10037000000080911B0190911C018130910541F09A
:10038000029709F009C0109217011092180104C0D9
:1003900081E08093170100000000DF91CF91089564
:1003A000CF93DF93CDB7DEB78091190190911A01F9
:1003B00082309105F9F08330910528F4009761F0BF
:1003C000019789F04DC08430910511F18430910579
:1003D000C0F0059791F144C081E090E090931A013C
:1003E0008093190142C082E090E090931A018093BB
:1003F00019013BC083E090E090931A0180931901AA
:1004000034C081E090E090931A01809319012DC0CF
:1004100081E08093180180911701882339F485E0E9
:1004200090E090931A01809319011FC084E090E03E
:1004300090931A018093190118C081E080931801EC
:1004400080911701882329F010921A011092190146
:100450000CC085E090E090931A018093190105C0CB
:1004600010921A011092190100008091170188233F
:1004700051F080911801882331F484E090E090934A
:100480001A01809319018091190190911A0182300B
:10049000910561F08330910579F0019709F012C060
:1004A00085E290E021E0FC0120830CC085E290E031
:1004B00022E0FC01208306C085E290E024E0FC01FC
:1004C000208300000000DF91CF910895CF93DF9348
:1004D000CDB7DEB781E290E0FC01108282E290E0CD
:1004E0002FEFFC01208384E290E02FEFFC012083BA
:1004F00085E290E0FC0110826CE271E080E090E027
:100500000E9440010E94900010921C0110921B0159
:1005100010921A01109219010E946E010E94D001DE
:100520000000809112018823E1F310921201F4CFB0
:04053000F894FFCF6D
:10053400000000020000000067000000000001004D
:020544000000B5
:00000001FF
